{
  "contractName": "DystopianFuture",
  "abi": [
    {
      "inputs": [],
      "stateMutability": "nonpayable",
      "type": "constructor"
    },
    {
      "inputs": [
        {
          "internalType": "address",
          "name": "spender",
          "type": "address"
        },
        {
          "internalType": "uint256",
          "name": "allowance",
          "type": "uint256"
        },
        {
          "internalType": "uint256",
          "name": "needed",
          "type": "uint256"
        }
      ],
      "name": "ERC20InsufficientAllowance",
      "type": "error"
    },
    {
      "inputs": [
        {
          "internalType": "address",
          "name": "sender",
          "type": "address"
        },
        {
          "internalType": "uint256",
          "name": "balance",
          "type": "uint256"
        },
        {
          "internalType": "uint256",
          "name": "needed",
          "type": "uint256"
        }
      ],
      "name": "ERC20InsufficientBalance",
      "type": "error"
    },
    {
      "inputs": [
        {
          "internalType": "address",
          "name": "approver",
          "type": "address"
        }
      ],
      "name": "ERC20InvalidApprover",
      "type": "error"
    },
    {
      "inputs": [
        {
          "internalType": "address",
          "name": "receiver",
          "type": "address"
        }
      ],
      "name": "ERC20InvalidReceiver",
      "type": "error"
    },
    {
      "inputs": [
        {
          "internalType": "address",
          "name": "sender",
          "type": "address"
        }
      ],
      "name": "ERC20InvalidSender",
      "type": "error"
    },
    {
      "inputs": [
        {
          "internalType": "address",
          "name": "spender",
          "type": "address"
        }
      ],
      "name": "ERC20InvalidSpender",
      "type": "error"
    },
    {
      "inputs": [],
      "name": "EnforcedPause",
      "type": "error"
    },
    {
      "inputs": [],
      "name": "ExpectedPause",
      "type": "error"
    },
    {
      "inputs": [
        {
          "internalType": "address",
          "name": "owner",
          "type": "address"
        }
      ],
      "name": "OwnableInvalidOwner",
      "type": "error"
    },
    {
      "inputs": [
        {
          "internalType": "address",
          "name": "account",
          "type": "address"
        }
      ],
      "name": "OwnableUnauthorizedAccount",
      "type": "error"
    },
    {
      "inputs": [],
      "name": "ReentrancyGuardReentrantCall",
      "type": "error"
    },
    {
      "anonymous": false,
      "inputs": [
        {
          "indexed": true,
          "internalType": "address",
          "name": "owner",
          "type": "address"
        },
        {
          "indexed": true,
          "internalType": "address",
          "name": "spender",
          "type": "address"
        },
        {
          "indexed": false,
          "internalType": "uint256",
          "name": "value",
          "type": "uint256"
        }
      ],
      "name": "Approval",
      "type": "event"
    },
    {
      "anonymous": false,
      "inputs": [
        {
          "indexed": true,
          "internalType": "address",
          "name": "previousOwner",
          "type": "address"
        },
        {
          "indexed": true,
          "internalType": "address",
          "name": "newOwner",
          "type": "address"
        }
      ],
      "name": "OwnershipTransferred",
      "type": "event"
    },
    {
      "anonymous": false,
      "inputs": [
        {
          "indexed": false,
          "internalType": "address",
          "name": "account",
          "type": "address"
        }
      ],
      "name": "Paused",
      "type": "event"
    },
    {
      "anonymous": false,
      "inputs": [
        {
          "indexed": true,
          "internalType": "address",
          "name": "sender",
          "type": "address"
        },
        {
          "indexed": false,
          "internalType": "uint256",
          "name": "amount",
          "type": "uint256"
        }
      ],
      "name": "Received",
      "type": "event"
    },
    {
      "anonymous": false,
      "inputs": [
        {
          "indexed": true,
          "internalType": "address",
          "name": "user",
          "type": "address"
        },
        {
          "indexed": false,
          "internalType": "uint256",
          "name": "maticAmount",
          "type": "uint256"
        },
        {
          "indexed": false,
          "internalType": "uint256",
          "name": "tokenAmount",
          "type": "uint256"
        }
      ],
      "name": "Swap",
      "type": "event"
    },
    {
      "anonymous": false,
      "inputs": [
        {
          "indexed": true,
          "internalType": "address",
          "name": "from",
          "type": "address"
        },
        {
          "indexed": true,
          "internalType": "address",
          "name": "to",
          "type": "address"
        },
        {
          "indexed": false,
          "internalType": "uint256",
          "name": "value",
          "type": "uint256"
        }
      ],
      "name": "Transfer",
      "type": "event"
    },
    {
      "anonymous": false,
      "inputs": [
        {
          "indexed": false,
          "internalType": "address",
          "name": "account",
          "type": "address"
        }
      ],
      "name": "Unpaused",
      "type": "event"
    },
    {
      "anonymous": false,
      "inputs": [
        {
          "indexed": true,
          "internalType": "address",
          "name": "owner",
          "type": "address"
        },
        {
          "indexed": false,
          "internalType": "uint256",
          "name": "amount",
          "type": "uint256"
        }
      ],
      "name": "Withdraw",
      "type": "event"
    },
    {
      "inputs": [],
      "name": "DTFU_PRICE",
      "outputs": [
        {
          "internalType": "uint256",
          "name": "",
          "type": "uint256"
        }
      ],
      "stateMutability": "view",
      "type": "function",
      "constant": true
    },
    {
      "inputs": [
        {
          "internalType": "address",
          "name": "owner",
          "type": "address"
        },
        {
          "internalType": "address",
          "name": "spender",
          "type": "address"
        }
      ],
      "name": "allowance",
      "outputs": [
        {
          "internalType": "uint256",
          "name": "",
          "type": "uint256"
        }
      ],
      "stateMutability": "view",
      "type": "function",
      "constant": true
    },
    {
      "inputs": [
        {
          "internalType": "address",
          "name": "spender",
          "type": "address"
        },
        {
          "internalType": "uint256",
          "name": "value",
          "type": "uint256"
        }
      ],
      "name": "approve",
      "outputs": [
        {
          "internalType": "bool",
          "name": "",
          "type": "bool"
        }
      ],
      "stateMutability": "nonpayable",
      "type": "function"
    },
    {
      "inputs": [
        {
          "internalType": "address",
          "name": "account",
          "type": "address"
        }
      ],
      "name": "balanceOf",
      "outputs": [
        {
          "internalType": "uint256",
          "name": "",
          "type": "uint256"
        }
      ],
      "stateMutability": "view",
      "type": "function",
      "constant": true
    },
    {
      "inputs": [
        {
          "internalType": "uint256",
          "name": "value",
          "type": "uint256"
        }
      ],
      "name": "burn",
      "outputs": [],
      "stateMutability": "nonpayable",
      "type": "function"
    },
    {
      "inputs": [
        {
          "internalType": "address",
          "name": "account",
          "type": "address"
        },
        {
          "internalType": "uint256",
          "name": "value",
          "type": "uint256"
        }
      ],
      "name": "burnFrom",
      "outputs": [],
      "stateMutability": "nonpayable",
      "type": "function"
    },
    {
      "inputs": [],
      "name": "decimals",
      "outputs": [
        {
          "internalType": "uint8",
          "name": "",
          "type": "uint8"
        }
      ],
      "stateMutability": "view",
      "type": "function",
      "constant": true
    },
    {
      "inputs": [],
      "name": "maxSwapPerTransaction",
      "outputs": [
        {
          "internalType": "uint256",
          "name": "",
          "type": "uint256"
        }
      ],
      "stateMutability": "view",
      "type": "function",
      "constant": true
    },
    {
      "inputs": [],
      "name": "name",
      "outputs": [
        {
          "internalType": "string",
          "name": "",
          "type": "string"
        }
      ],
      "stateMutability": "view",
      "type": "function",
      "constant": true
    },
    {
      "inputs": [],
      "name": "owner",
      "outputs": [
        {
          "internalType": "address",
          "name": "",
          "type": "address"
        }
      ],
      "stateMutability": "view",
      "type": "function",
      "constant": true
    },
    {
      "inputs": [],
      "name": "paused",
      "outputs": [
        {
          "internalType": "bool",
          "name": "",
          "type": "bool"
        }
      ],
      "stateMutability": "view",
      "type": "function",
      "constant": true
    },
    {
      "inputs": [],
      "name": "renounceOwnership",
      "outputs": [],
      "stateMutability": "nonpayable",
      "type": "function"
    },
    {
      "inputs": [],
      "name": "symbol",
      "outputs": [
        {
          "internalType": "string",
          "name": "",
          "type": "string"
        }
      ],
      "stateMutability": "view",
      "type": "function",
      "constant": true
    },
    {
      "inputs": [],
      "name": "totalSupply",
      "outputs": [
        {
          "internalType": "uint256",
          "name": "",
          "type": "uint256"
        }
      ],
      "stateMutability": "view",
      "type": "function",
      "constant": true
    },
    {
      "inputs": [
        {
          "internalType": "address",
          "name": "to",
          "type": "address"
        },
        {
          "internalType": "uint256",
          "name": "value",
          "type": "uint256"
        }
      ],
      "name": "transfer",
      "outputs": [
        {
          "internalType": "bool",
          "name": "",
          "type": "bool"
        }
      ],
      "stateMutability": "nonpayable",
      "type": "function"
    },
    {
      "inputs": [
        {
          "internalType": "address",
          "name": "from",
          "type": "address"
        },
        {
          "internalType": "address",
          "name": "to",
          "type": "address"
        },
        {
          "internalType": "uint256",
          "name": "value",
          "type": "uint256"
        }
      ],
      "name": "transferFrom",
      "outputs": [
        {
          "internalType": "bool",
          "name": "",
          "type": "bool"
        }
      ],
      "stateMutability": "nonpayable",
      "type": "function"
    },
    {
      "inputs": [
        {
          "internalType": "address",
          "name": "newOwner",
          "type": "address"
        }
      ],
      "name": "transferOwnership",
      "outputs": [],
      "stateMutability": "nonpayable",
      "type": "function"
    },
    {
      "stateMutability": "payable",
      "type": "receive",
      "payable": true
    },
    {
      "inputs": [],
      "name": "swap",
      "outputs": [],
      "stateMutability": "payable",
      "type": "function",
      "payable": true
    },
    {
      "inputs": [],
      "name": "withdraw",
      "outputs": [],
      "stateMutability": "nonpayable",
      "type": "function"
    },
    {
      "inputs": [
        {
          "internalType": "uint256",
          "name": "_price",
          "type": "uint256"
        }
      ],
      "name": "setTokenPrice",
      "outputs": [],
      "stateMutability": "nonpayable",
      "type": "function"
    },
    {
      "inputs": [
        {
          "internalType": "uint256",
          "name": "_max",
          "type": "uint256"
        }
      ],
      "name": "setMaxSwapPerTransaction",
      "outputs": [],
      "stateMutability": "nonpayable",
      "type": "function"
    },
    {
      "inputs": [],
      "name": "pause",
      "outputs": [],
      "stateMutability": "nonpayable",
      "type": "function"
    },
    {
      "inputs": [],
      "name": "unpause",
      "outputs": [],
      "stateMutability": "nonpayable",
      "type": "function"
    }
  ],
  "bytecode": "0x6080604052671bc16d674ec8000060075562000020620001ce60201b60201c565b600a6200002e9190620006d9565b620f42406200003e919062000729565b6008553480156200004d575f80fd5b50336040518060400160405280600f81526020017f447973746f7069616e46757475726500000000000000000000000000000000008152506040518060400160405280600481526020017f44544655000000000000000000000000000000000000000000000000000000008152508160039081620000cc9190620009ce565b508060049081620000de9190620009ce565b5050505f73ffffffffffffffffffffffffffffffffffffffff168173ffffffffffffffffffffffffffffffffffffffff160362000154575f6040517f1e4fbdf70000000000000000000000000000000000000000000000000000000081526004016200014b919062000af5565b60405180910390fd5b6200016581620001d660201b60201c565b505f600560146101000a81548160ff0219169083151502179055506001600681905550620001c8336200019d620001ce60201b60201c565b600a620001ab9190620006d9565b6301406f40620001bc919062000729565b6200029960201b60201c565b62000bb1565b5f6012905090565b5f60055f9054906101000a900473ffffffffffffffffffffffffffffffffffffffff1690508160055f6101000a81548173ffffffffffffffffffffffffffffffffffffffff021916908373ffffffffffffffffffffffffffffffffffffffff1602179055508173ffffffffffffffffffffffffffffffffffffffff168173ffffffffffffffffffffffffffffffffffffffff167f8be0079c531659141344cd1fd0a4f28419497f9722a3daafe3b4186f6b6457e060405160405180910390a35050565b5f73ffffffffffffffffffffffffffffffffffffffff168273ffffffffffffffffffffffffffffffffffffffff16036200030c575f6040517fec442f0500000000000000000000000000000000000000000000000000000000815260040162000303919062000af5565b60405180910390fd5b6200031f5f83836200032360201b60201c565b5050565b5f73ffffffffffffffffffffffffffffffffffffffff168373ffffffffffffffffffffffffffffffffffffffff160362000377578060025f8282546200036a919062000b10565b9250508190555062000448565b5f805f8573ffffffffffffffffffffffffffffffffffffffff1673ffffffffffffffffffffffffffffffffffffffff1681526020019081526020015f205490508181101562000403578381836040517fe450d38c000000000000000000000000000000000000000000000000000000008152600401620003fa9392919062000b5b565b60405180910390fd5b8181035f808673ffffffffffffffffffffffffffffffffffffffff1673ffffffffffffffffffffffffffffffffffffffff1681526020019081526020015f2081905550505b5f73ffffffffffffffffffffffffffffffffffffffff168273ffffffffffffffffffffffffffffffffffffffff160362000491578060025f8282540392505081905550620004db565b805f808473ffffffffffffffffffffffffffffffffffffffff1673ffffffffffffffffffffffffffffffffffffffff1681526020019081526020015f205f82825401925050819055505b8173ffffffffffffffffffffffffffffffffffffffff168373ffffffffffffffffffffffffffffffffffffffff167fddf252ad1be2c89b69c2b068fc378daa952ba7f163c4a11628f55a4df523b3ef836040516200053a919062000b96565b60405180910390a3505050565b7f4e487b71000000000000000000000000000000000000000000000000000000005f52601160045260245ffd5b5f8160011c9050919050565b5f808291508390505b6001851115620005d157808604811115620005a957620005a862000547565b5b6001851615620005b95780820291505b8081029050620005c98562000574565b945062000589565b94509492505050565b5f82620005eb5760019050620006bd565b81620005fa575f9050620006bd565b81600181146200061357600281146200061e5762000654565b6001915050620006bd565b60ff84111562000633576200063262000547565b5b8360020a9150848211156200064d576200064c62000547565b5b50620006bd565b5060208310610133831016604e8410600b84101617156200068e5782820a90508381111562000688576200068762000547565b5b620006bd565b6200069d848484600162000580565b92509050818404811115620006b757620006b662000547565b5b81810290505b9392505050565b5f819050919050565b5f60ff82169050919050565b5f620006e582620006c4565b9150620006f283620006cd565b9250620007217fffffffffffffffffffffffffffffffffffffffffffffffffffffffffffffffff8484620005da565b905092915050565b5f6200073582620006c4565b91506200074283620006c4565b92508282026200075281620006c4565b915082820484148315176200076c576200076b62000547565b5b5092915050565b5f81519050919050565b7f4e487b71000000000000000000000000000000000000000000000000000000005f52604160045260245ffd5b7f4e487b71000000000000000000000000000000000000000000000000000000005f52602260045260245ffd5b5f6002820490506001821680620007ef57607f821691505b602082108103620008055762000804620007aa565b5b50919050565b5f819050815f5260205f209050919050565b5f6020601f8301049050919050565b5f82821b905092915050565b5f60088302620008697fffffffffffffffffffffffffffffffffffffffffffffffffffffffffffffffff826200082c565b6200087586836200082c565b95508019841693508086168417925050509392505050565b5f819050919050565b5f620008b6620008b0620008aa84620006c4565b6200088d565b620006c4565b9050919050565b5f819050919050565b620008d18362000896565b620008e9620008e082620008bd565b84845462000838565b825550505050565b5f90565b620008ff620008f1565b6200090c818484620008c6565b505050565b5b818110156200093357620009275f82620008f5565b60018101905062000912565b5050565b601f82111562000982576200094c816200080b565b62000957846200081d565b8101602085101562000967578190505b6200097f62000976856200081d565b83018262000911565b50505b505050565b5f82821c905092915050565b5f620009a45f198460080262000987565b1980831691505092915050565b5f620009be838362000993565b9150826002028217905092915050565b620009d98262000773565b67ffffffffffffffff811115620009f557620009f46200077d565b5b62000a018254620007d7565b62000a0e82828562000937565b5f60209050601f83116001811462000a44575f841562000a2f578287015190505b62000a3b8582620009b1565b86555062000aaa565b601f19841662000a54866200080b565b5f5b8281101562000a7d5784890151825560018201915060208501945060208101905062000a56565b8683101562000a9d578489015162000a99601f89168262000993565b8355505b6001600288020188555050505b505050505050565b5f73ffffffffffffffffffffffffffffffffffffffff82169050919050565b5f62000add8262000ab2565b9050919050565b62000aef8162000ad1565b82525050565b5f60208201905062000b0a5f83018462000ae4565b92915050565b5f62000b1c82620006c4565b915062000b2983620006c4565b925082820190508082111562000b445762000b4362000547565b5b92915050565b62000b5581620006c4565b82525050565b5f60608201905062000b705f83018662000ae4565b62000b7f602083018562000b4a565b62000b8e604083018462000b4a565b949350505050565b5f60208201905062000bab5f83018462000b4a565b92915050565b611d1f8062000bbf5f395ff3fe608060405260043610610143575f3560e01c80635c975abb116100b55780638456cb591161006e5780638456cb59146104385780638da5cb5b1461044e57806395d89b4114610478578063a9059cbb146104a2578063dd62ed3e146104de578063f2fde38b1461051a57610198565b80635c975abb146103625780636a61e5fc1461038c57806370a08231146103b4578063715018a6146103f057806379cc6790146104065780638119c0651461042e57610198565b806323b872dd1161010757806323b872dd1461027e578063313ce567146102ba5780633ccfd60b146102e45780633f4ba83a146102fa57806342966c6814610310578063572b10bb1461033857610198565b806306fdde031461019c578063095ea7b3146101c65780630e915af81461020257806318160ddd1461022c5780631b4d00761461025657610198565b36610198573373ffffffffffffffffffffffffffffffffffffffff167f88a5966d370b9919b20f3e2c13ff65706f196a4e32cc2c12bf57088f885258743460405161018e91906114b5565b60405180910390a2005b5f80fd5b3480156101a7575f80fd5b506101b0610542565b6040516101bd9190611558565b60405180910390f35b3480156101d1575f80fd5b506101ec60048036038101906101e79190611600565b6105d2565b6040516101f99190611658565b60405180910390f35b34801561020d575f80fd5b506102166105f4565b60405161022391906114b5565b60405180910390f35b348015610237575f80fd5b506102406105fa565b60405161024d91906114b5565b60405180910390f35b348015610261575f80fd5b5061027c60048036038101906102779190611671565b610603565b005b348015610289575f80fd5b506102a4600480360381019061029f919061169c565b610615565b6040516102b19190611658565b60405180910390f35b3480156102c5575f80fd5b506102ce610643565b6040516102db9190611707565b60405180910390f35b3480156102ef575f80fd5b506102f861064b565b005b348015610305575f80fd5b5061030e610745565b005b34801561031b575f80fd5b5061033660048036038101906103319190611671565b610757565b005b348015610343575f80fd5b5061034c61076b565b60405161035991906114b5565b60405180910390f35b34801561036d575f80fd5b50610376610771565b6040516103839190611658565b60405180910390f35b348015610397575f80fd5b506103b260048036038101906103ad9190611671565b610787565b005b3480156103bf575f80fd5b506103da60048036038101906103d59190611720565b610799565b6040516103e791906114b5565b60405180910390f35b3480156103fb575f80fd5b506104046107de565b005b348015610411575f80fd5b5061042c60048036038101906104279190611600565b6107f1565b005b610436610811565b005b348015610443575f80fd5b5061044c6109c8565b005b348015610459575f80fd5b506104626109da565b60405161046f919061175a565b60405180910390f35b348015610483575f80fd5b5061048c610a02565b6040516104999190611558565b60405180910390f35b3480156104ad575f80fd5b506104c860048036038101906104c39190611600565b610a92565b6040516104d59190611658565b60405180910390f35b3480156104e9575f80fd5b5061050460048036038101906104ff9190611773565b610ab4565b60405161051191906114b5565b60405180910390f35b348015610525575f80fd5b50610540600480360381019061053b9190611720565b610b36565b005b606060038054610551906117de565b80601f016020809104026020016040519081016040528092919081815260200182805461057d906117de565b80156105c85780601f1061059f576101008083540402835291602001916105c8565b820191905f5260205f20905b8154815290600101906020018083116105ab57829003601f168201915b5050505050905090565b5f806105dc610bba565b90506105e9818585610bc1565b600191505092915050565b60085481565b5f600254905090565b61060b610bd3565b8060088190555050565b5f8061061f610bba565b905061062c858285610c5a565b610637858585610ced565b60019150509392505050565b5f6012905090565b610653610bd3565b61065b610ddd565b5f4790505f81116106a1576040517f08c379a000000000000000000000000000000000000000000000000000000000815260040161069890611858565b60405180910390fd5b6106a96109da565b73ffffffffffffffffffffffffffffffffffffffff166108fc8290811502906040515f60405180830381858888f193505050501580156106eb573d5f803e3d5ffd5b503373ffffffffffffffffffffffffffffffffffffffff167f884edad9ce6fa2440d8a54cc123490eb96d2768479d49ff9c7366125a94243648260405161073291906114b5565b60405180910390a250610743610e23565b565b61074d610bd3565b610755610e2d565b565b610768610762610bba565b82610e8f565b50565b60075481565b5f600560149054906101000a900460ff16905090565b61078f610bd3565b8060078190555050565b5f805f8373ffffffffffffffffffffffffffffffffffffffff1673ffffffffffffffffffffffffffffffffffffffff1681526020019081526020015f20549050919050565b6107e6610bd3565b6107ef5f610f0e565b565b610803826107fd610bba565b83610c5a565b61080d8282610e8f565b5050565b610819610fd1565b5f341161085b576040517f08c379a0000000000000000000000000000000000000000000000000000000008152600401610852906118c0565b60405180910390fd5b5f600754610867610643565b600a6108739190611a3a565b3461087e9190611a84565b6108889190611af2565b90505f81116108cc576040517f08c379a00000000000000000000000000000000000000000000000000000000081526004016108c390611b6c565b60405180910390fd5b600854811115610911576040517f08c379a000000000000000000000000000000000000000000000000000000000815260040161090890611bd4565b60405180910390fd5b8061092261091d6109da565b610799565b1015610963576040517f08c379a000000000000000000000000000000000000000000000000000000000815260040161095a90611c3c565b60405180910390fd5b61097561096e6109da565b3383610ced565b3373ffffffffffffffffffffffffffffffffffffffff167f77f92a1b6a1a11de8ca49515ad4c1fad45632dd3442167d74b90b304a3c7a75834836040516109bd929190611c5a565b60405180910390a250565b6109d0610bd3565b6109d8611012565b565b5f60055f9054906101000a900473ffffffffffffffffffffffffffffffffffffffff16905090565b606060048054610a11906117de565b80601f0160208091040260200160405190810160405280929190818152602001828054610a3d906117de565b8015610a885780601f10610a5f57610100808354040283529160200191610a88565b820191905f5260205f20905b815481529060010190602001808311610a6b57829003601f168201915b5050505050905090565b5f80610a9c610bba565b9050610aa9818585610ced565b600191505092915050565b5f60015f8473ffffffffffffffffffffffffffffffffffffffff1673ffffffffffffffffffffffffffffffffffffffff1681526020019081526020015f205f8373ffffffffffffffffffffffffffffffffffffffff1673ffffffffffffffffffffffffffffffffffffffff1681526020019081526020015f2054905092915050565b610b3e610bd3565b5f73ffffffffffffffffffffffffffffffffffffffff168173ffffffffffffffffffffffffffffffffffffffff1603610bae575f6040517f1e4fbdf7000000000000000000000000000000000000000000000000000000008152600401610ba5919061175a565b60405180910390fd5b610bb781610f0e565b50565b5f33905090565b610bce8383836001611075565b505050565b610bdb610bba565b73ffffffffffffffffffffffffffffffffffffffff16610bf96109da565b73ffffffffffffffffffffffffffffffffffffffff1614610c5857610c1c610bba565b6040517f118cdaa7000000000000000000000000000000000000000000000000000000008152600401610c4f919061175a565b60405180910390fd5b565b5f610c658484610ab4565b90507fffffffffffffffffffffffffffffffffffffffffffffffffffffffffffffffff811015610ce75781811015610cd8578281836040517ffb8f41b2000000000000000000000000000000000000000000000000000000008152600401610ccf93929190611c81565b60405180910390fd5b610ce684848484035f611075565b5b50505050565b5f73ffffffffffffffffffffffffffffffffffffffff168373ffffffffffffffffffffffffffffffffffffffff1603610d5d575f6040517f96c6fd1e000000000000000000000000000000000000000000000000000000008152600401610d54919061175a565b60405180910390fd5b5f73ffffffffffffffffffffffffffffffffffffffff168273ffffffffffffffffffffffffffffffffffffffff1603610dcd575f6040517fec442f05000000000000000000000000000000000000000000000000000000008152600401610dc4919061175a565b60405180910390fd5b610dd8838383611244565b505050565b600260065403610e19576040517f3ee5aeb500000000000000000000000000000000000000000000000000000000815260040160405180910390fd5b6002600681905550565b6001600681905550565b610e3561145d565b5f600560146101000a81548160ff0219169083151502179055507f5db9ee0a495bf2e6ff9c91a7834c1ba4fdd244a5e8aa4e537bd38aeae4b073aa610e78610bba565b604051610e85919061175a565b60405180910390a1565b5f73ffffffffffffffffffffffffffffffffffffffff168273ffffffffffffffffffffffffffffffffffffffff1603610eff575f6040517f96c6fd1e000000000000000000000000000000000000000000000000000000008152600401610ef6919061175a565b60405180910390fd5b610f0a825f83611244565b5050565b5f60055f9054906101000a900473ffffffffffffffffffffffffffffffffffffffff1690508160055f6101000a81548173ffffffffffffffffffffffffffffffffffffffff021916908373ffffffffffffffffffffffffffffffffffffffff1602179055508173ffffffffffffffffffffffffffffffffffffffff168173ffffffffffffffffffffffffffffffffffffffff167f8be0079c531659141344cd1fd0a4f28419497f9722a3daafe3b4186f6b6457e060405160405180910390a35050565b610fd9610771565b15611010576040517fd93c066500000000000000000000000000000000000000000000000000000000815260040160405180910390fd5b565b61101a610fd1565b6001600560146101000a81548160ff0219169083151502179055507f62e78cea01bee320cd4e420270b5ea74000d11b0c9f74754ebdbfc544b05a25861105e610bba565b60405161106b919061175a565b60405180910390a1565b5f73ffffffffffffffffffffffffffffffffffffffff168473ffffffffffffffffffffffffffffffffffffffff16036110e5575f6040517fe602df050000000000000000000000000000000000000000000000000000000081526004016110dc919061175a565b60405180910390fd5b5f73ffffffffffffffffffffffffffffffffffffffff168373ffffffffffffffffffffffffffffffffffffffff1603611155575f6040517f94280d6200000000000000000000000000000000000000000000000000000000815260040161114c919061175a565b60405180910390fd5b8160015f8673ffffffffffffffffffffffffffffffffffffffff1673ffffffffffffffffffffffffffffffffffffffff1681526020019081526020015f205f8573ffffffffffffffffffffffffffffffffffffffff1673ffffffffffffffffffffffffffffffffffffffff1681526020019081526020015f2081905550801561123e578273ffffffffffffffffffffffffffffffffffffffff168473ffffffffffffffffffffffffffffffffffffffff167f8c5be1e5ebec7d5bd14f71427d1e84f3dd0314c0f7b2291e5b200ac8c7c3b9258460405161123591906114b5565b60405180910390a35b50505050565b5f73ffffffffffffffffffffffffffffffffffffffff168373ffffffffffffffffffffffffffffffffffffffff1603611294578060025f8282546112889190611cb6565b92505081905550611362565b5f805f8573ffffffffffffffffffffffffffffffffffffffff1673ffffffffffffffffffffffffffffffffffffffff1681526020019081526020015f205490508181101561131d578381836040517fe450d38c00000000000000000000000000000000000000000000000000000000815260040161131493929190611c81565b60405180910390fd5b8181035f808673ffffffffffffffffffffffffffffffffffffffff1673ffffffffffffffffffffffffffffffffffffffff1681526020019081526020015f2081905550505b5f73ffffffffffffffffffffffffffffffffffffffff168273ffffffffffffffffffffffffffffffffffffffff16036113a9578060025f82825403925050819055506113f3565b805f808473ffffffffffffffffffffffffffffffffffffffff1673ffffffffffffffffffffffffffffffffffffffff1681526020019081526020015f205f82825401925050819055505b8173ffffffffffffffffffffffffffffffffffffffff168373ffffffffffffffffffffffffffffffffffffffff167fddf252ad1be2c89b69c2b068fc378daa952ba7f163c4a11628f55a4df523b3ef8360405161145091906114b5565b60405180910390a3505050565b611465610771565b61149b576040517f8dfc202b00000000000000000000000000000000000000000000000000000000815260040160405180910390fd5b565b5f819050919050565b6114af8161149d565b82525050565b5f6020820190506114c85f8301846114a6565b92915050565b5f81519050919050565b5f82825260208201905092915050565b5f5b838110156115055780820151818401526020810190506114ea565b5f8484015250505050565b5f601f19601f8301169050919050565b5f61152a826114ce565b61153481856114d8565b93506115448185602086016114e8565b61154d81611510565b840191505092915050565b5f6020820190508181035f8301526115708184611520565b905092915050565b5f80fd5b5f73ffffffffffffffffffffffffffffffffffffffff82169050919050565b5f6115a58261157c565b9050919050565b6115b58161159b565b81146115bf575f80fd5b50565b5f813590506115d0816115ac565b92915050565b6115df8161149d565b81146115e9575f80fd5b50565b5f813590506115fa816115d6565b92915050565b5f806040838503121561161657611615611578565b5b5f611623858286016115c2565b9250506020611634858286016115ec565b9150509250929050565b5f8115159050919050565b6116528161163e565b82525050565b5f60208201905061166b5f830184611649565b92915050565b5f6020828403121561168657611685611578565b5b5f611693848285016115ec565b91505092915050565b5f805f606084860312156116b3576116b2611578565b5b5f6116c0868287016115c2565b93505060206116d1868287016115c2565b92505060406116e2868287016115ec565b9150509250925092565b5f60ff82169050919050565b611701816116ec565b82525050565b5f60208201905061171a5f8301846116f8565b92915050565b5f6020828403121561173557611734611578565b5b5f611742848285016115c2565b91505092915050565b6117548161159b565b82525050565b5f60208201905061176d5f83018461174b565b92915050565b5f806040838503121561178957611788611578565b5b5f611796858286016115c2565b92505060206117a7858286016115c2565b9150509250929050565b7f4e487b71000000000000000000000000000000000000000000000000000000005f52602260045260245ffd5b5f60028204905060018216806117f557607f821691505b602082108103611808576118076117b1565b5b50919050565b7f4e6f204d4154494320746f2077697468647261770000000000000000000000005f82015250565b5f6118426014836114d8565b915061184d8261180e565b602082019050919050565b5f6020820190508181035f83015261186f81611836565b9050919050565b7f53656e64204d4154494320746f207377617000000000000000000000000000005f82015250565b5f6118aa6012836114d8565b91506118b582611876565b602082019050919050565b5f6020820190508181035f8301526118d78161189e565b9050919050565b7f4e487b71000000000000000000000000000000000000000000000000000000005f52601160045260245ffd5b5f8160011c9050919050565b5f808291508390505b60018511156119605780860481111561193c5761193b6118de565b5b600185161561194b5780820291505b80810290506119598561190b565b9450611920565b94509492505050565b5f826119785760019050611a33565b81611985575f9050611a33565b816001811461199b57600281146119a5576119d4565b6001915050611a33565b60ff8411156119b7576119b66118de565b5b8360020a9150848211156119ce576119cd6118de565b5b50611a33565b5060208310610133831016604e8410600b8410161715611a095782820a905083811115611a0457611a036118de565b5b611a33565b611a168484846001611917565b92509050818404811115611a2d57611a2c6118de565b5b81810290505b9392505050565b5f611a448261149d565b9150611a4f836116ec565b9250611a7c7fffffffffffffffffffffffffffffffffffffffffffffffffffffffffffffffff8484611969565b905092915050565b5f611a8e8261149d565b9150611a998361149d565b9250828202611aa78161149d565b91508282048414831517611abe57611abd6118de565b5b5092915050565b7f4e487b71000000000000000000000000000000000000000000000000000000005f52601260045260245ffd5b5f611afc8261149d565b9150611b078361149d565b925082611b1757611b16611ac5565b5b828204905092915050565b7f496e73756666696369656e74204d415449432073656e740000000000000000005f82015250565b5f611b566017836114d8565b9150611b6182611b22565b602082019050919050565b5f6020820190508181035f830152611b8381611b4a565b9050919050565b7f45786365656473206d61782073776170206c696d6974000000000000000000005f82015250565b5f611bbe6016836114d8565b9150611bc982611b8a565b602082019050919050565b5f6020820190508181035f830152611beb81611bb2565b9050919050565b7f4e6f7420656e6f75676820746f6b656e7320696e20636f6e74726163740000005f82015250565b5f611c26601d836114d8565b9150611c3182611bf2565b602082019050919050565b5f6020820190508181035f830152611c5381611c1a565b9050919050565b5f604082019050611c6d5f8301856114a6565b611c7a60208301846114a6565b9392505050565b5f606082019050611c945f83018661174b565b611ca160208301856114a6565b611cae60408301846114a6565b949350505050565b5f611cc08261149d565b9150611ccb8361149d565b9250828201905080821115611ce357611ce26118de565b5b9291505056fea2646970667358221220b95c000469ae26ca31f16ba6800722f82317b5ed152911113a2eadb3b26356e764736f6c63430008140033",
  "immutableReferences": {},
  "source": "// SPDX-License-Identifier: MIT\npragma solidity ^0.8.20;\n\nimport \"@openzeppelin/contracts/token/ERC20/ERC20.sol\";\nimport \"@openzeppelin/contracts/token/ERC20/extensions/ERC20Burnable.sol\";\nimport \"@openzeppelin/contracts/access/Ownable.sol\";\nimport \"@openzeppelin/contracts/utils/Pausable.sol\";\nimport \"@openzeppelin/contracts/utils/ReentrancyGuard.sol\";\n\n\ncontract DystopianFuture is ERC20, ERC20Burnable, Ownable, Pausable, ReentrancyGuard {\n    uint256 public DTFU_PRICE = 2.00 ether;\n    uint256 public maxSwapPerTransaction = 1000000 * 10 ** decimals();\n\n    event Swap(address indexed user, uint256 maticAmount, uint256 tokenAmount);\n    event Withdraw(address indexed owner, uint256 amount);\n    event Received(address indexed sender, uint256 amount);\n\n    // Correctly call the Ownable constructor with the deployer's address\n    constructor() ERC20(\"DystopianFuture\", \"DTFU\") Ownable(msg.sender) {\n        _mint(msg.sender, 21_000_000 * 10 ** decimals());\n    }\n\n    receive() external payable {\n        emit Received(msg.sender, msg.value);\n    }\n\n    function swap() external payable whenNotPaused {\n        require(msg.value > 0, \"Send MATIC to swap\");\n        uint256 amountToTransfer = (msg.value * 10 ** decimals()) / DTFU_PRICE;\n        require(amountToTransfer > 0, \"Insufficient MATIC sent\");\n        require(amountToTransfer <= maxSwapPerTransaction, \"Exceeds max swap limit\");\n        require(balanceOf(owner()) >= amountToTransfer, \"Not enough tokens in contract\");\n\n        _transfer(owner(), msg.sender, amountToTransfer);\n        emit Swap(msg.sender, msg.value, amountToTransfer);\n    }\n\n    function withdraw() external onlyOwner nonReentrant {\n        uint256 balance = address(this).balance;\n        require(balance > 0, \"No MATIC to withdraw\");\n        payable(owner()).transfer(balance);\n        emit Withdraw(msg.sender, balance);\n    }\n\n    function setTokenPrice(uint256 _price) external onlyOwner {\n        DTFU_PRICE = _price;\n    }\n\n    function setMaxSwapPerTransaction(uint256 _max) external onlyOwner {\n        maxSwapPerTransaction = _max;\n    }\n\n    function pause() external onlyOwner {\n        _pause();\n    }\n\n    function unpause() external onlyOwner {\n        _unpause();\n    }\n}",
  "sourcePath": "/Users/zacmetin/Desktop/workspace/DTFUTokenProject/DTFUTokenProject/contracts/DTFU.sol",
  "compiler": {
    "name": "solc",
    "version": "0.8.20+commit.a1b79de6.Emscripten.clang"
  },
  "schemaVersion": "3.4.16",
  "updatedAt": "2025-01-25T10:45:20.150Z",
  "networkType": "ethereum",
  "devdoc": {
    "errors": {
      "ERC20InsufficientAllowance(address,uint256,uint256)": [
        {
          "details": "Indicates a failure with the `spender`s `allowance`. Used in transfers.",
          "params": {
            "allowance": "Amount of tokens a `spender` is allowed to operate with.",
            "needed": "Minimum amount required to perform a transfer.",
            "spender": "Address that may be allowed to operate on tokens without being their owner."
          }
        }
      ],
      "ERC20InsufficientBalance(address,uint256,uint256)": [
        {
          "details": "Indicates an error related to the current `balance` of a `sender`. Used in transfers.",
          "params": {
            "balance": "Current balance for the interacting account.",
            "needed": "Minimum amount required to perform a transfer.",
            "sender": "Address whose tokens are being transferred."
          }
        }
      ],
      "ERC20InvalidApprover(address)": [
        {
          "details": "Indicates a failure with the `approver` of a token to be approved. Used in approvals.",
          "params": {
            "approver": "Address initiating an approval operation."
          }
        }
      ],
      "ERC20InvalidReceiver(address)": [
        {
          "details": "Indicates a failure with the token `receiver`. Used in transfers.",
          "params": {
            "receiver": "Address to which tokens are being transferred."
          }
        }
      ],
      "ERC20InvalidSender(address)": [
        {
          "details": "Indicates a failure with the token `sender`. Used in transfers.",
          "params": {
            "sender": "Address whose tokens are being transferred."
          }
        }
      ],
      "ERC20InvalidSpender(address)": [
        {
          "details": "Indicates a failure with the `spender` to be approved. Used in approvals.",
          "params": {
            "spender": "Address that may be allowed to operate on tokens without being their owner."
          }
        }
      ],
      "EnforcedPause()": [
        {
          "details": "The operation failed because the contract is paused."
        }
      ],
      "ExpectedPause()": [
        {
          "details": "The operation failed because the contract is not paused."
        }
      ],
      "OwnableInvalidOwner(address)": [
        {
          "details": "The owner is not a valid owner account. (eg. `address(0)`)"
        }
      ],
      "OwnableUnauthorizedAccount(address)": [
        {
          "details": "The caller account is not authorized to perform an operation."
        }
      ],
      "ReentrancyGuardReentrantCall()": [
        {
          "details": "Unauthorized reentrant call."
        }
      ]
    },
    "events": {
      "Approval(address,address,uint256)": {
        "details": "Emitted when the allowance of a `spender` for an `owner` is set by a call to {approve}. `value` is the new allowance."
      },
      "Paused(address)": {
        "details": "Emitted when the pause is triggered by `account`."
      },
      "Transfer(address,address,uint256)": {
        "details": "Emitted when `value` tokens are moved from one account (`from`) to another (`to`). Note that `value` may be zero."
      },
      "Unpaused(address)": {
        "details": "Emitted when the pause is lifted by `account`."
      }
    },
    "kind": "dev",
    "methods": {
      "allowance(address,address)": {
        "details": "See {IERC20-allowance}."
      },
      "approve(address,uint256)": {
        "details": "See {IERC20-approve}. NOTE: If `value` is the maximum `uint256`, the allowance is not updated on `transferFrom`. This is semantically equivalent to an infinite approval. Requirements: - `spender` cannot be the zero address."
      },
      "balanceOf(address)": {
        "details": "See {IERC20-balanceOf}."
      },
      "burn(uint256)": {
        "details": "Destroys a `value` amount of tokens from the caller. See {ERC20-_burn}."
      },
      "burnFrom(address,uint256)": {
        "details": "Destroys a `value` amount of tokens from `account`, deducting from the caller's allowance. See {ERC20-_burn} and {ERC20-allowance}. Requirements: - the caller must have allowance for ``accounts``'s tokens of at least `value`."
      },
      "decimals()": {
        "details": "Returns the number of decimals used to get its user representation. For example, if `decimals` equals `2`, a balance of `505` tokens should be displayed to a user as `5.05` (`505 / 10 ** 2`). Tokens usually opt for a value of 18, imitating the relationship between Ether and Wei. This is the default value returned by this function, unless it's overridden. NOTE: This information is only used for _display_ purposes: it in no way affects any of the arithmetic of the contract, including {IERC20-balanceOf} and {IERC20-transfer}."
      },
      "name()": {
        "details": "Returns the name of the token."
      },
      "owner()": {
        "details": "Returns the address of the current owner."
      },
      "paused()": {
        "details": "Returns true if the contract is paused, and false otherwise."
      },
      "renounceOwnership()": {
        "details": "Leaves the contract without owner. It will not be possible to call `onlyOwner` functions. Can only be called by the current owner. NOTE: Renouncing ownership will leave the contract without an owner, thereby disabling any functionality that is only available to the owner."
      },
      "symbol()": {
        "details": "Returns the symbol of the token, usually a shorter version of the name."
      },
      "totalSupply()": {
        "details": "See {IERC20-totalSupply}."
      },
      "transfer(address,uint256)": {
        "details": "See {IERC20-transfer}. Requirements: - `to` cannot be the zero address. - the caller must have a balance of at least `value`."
      },
      "transferFrom(address,address,uint256)": {
        "details": "See {IERC20-transferFrom}. Skips emitting an {Approval} event indicating an allowance update. This is not required by the ERC. See {xref-ERC20-_approve-address-address-uint256-bool-}[_approve]. NOTE: Does not update the allowance if the current allowance is the maximum `uint256`. Requirements: - `from` and `to` cannot be the zero address. - `from` must have a balance of at least `value`. - the caller must have allowance for ``from``'s tokens of at least `value`."
      },
      "transferOwnership(address)": {
        "details": "Transfers ownership of the contract to a new account (`newOwner`). Can only be called by the current owner."
      }
    },
    "version": 1
  },
  "userdoc": {
    "kind": "user",
    "methods": {},
    "version": 1
  }
}